:0A0000000C9464000C9400000C94B2
:10000A0000000C9400000C9400000C9400000C9466
:10001A0000000C9400000C9400000C9400000C9456
:10002A0000000C9400000C9400000C9400000C9446
:10003A0000000C9400000C9400000C9400000C9436
:10004A00C5000C9400000C94E5000C9400000C947C
:10005A0000000C9400000C9400000C94000010277F
:10006A00E80364000A00010000100001100001000A
:10007A00000000000000646F20616D3A20202564B2
:10008A0025006E6869657420646F3A202564002033
:10009A00202020204552524F522020202020002587
:1000AA0064200025640A000080C0060003007A006C
:1000BA0010000003990002002003B2000000F89427
:1000CA00EE27EFBBF1E0F5BFE5BF8DE0A2E0BB276D
:1000DA00ED938A95E9F780E098E0A0E0B1E0ED932E
:1000EA000197E9F7E4EBF0E085919591009761F0CB
:1000FA00A591B59105901590BF01F00105900D925B
:10010A000197E1F7FB01F0CFE0E0EEBBEFEFEDBFC7
:10011A00E8E0EEBFC0E0D3E00C941B014598A4EFE1
:10012A00B1E00E94FC04459AA4EFB1E00E94FC04ED
:10013A0008953C9A4498A4E1B0E00E94FC04449AD1
:10014A003C980895BA93AA931A930A9300E010E090
:10015A00A0E03499A1E0EA81FB81B0E00E940E059B
:10016A000E2ED801E4E6F0E00E941405E02119F011
:10017A000F5F1F4FEDCFF80119810881249608956A
:10018A00EA93FA93EFB7EA931A930A931091C0008D
:10019A000091C600E12FEC7181F4E42D4394F0E064
:1001AA00E05FFC4F0083E8E0E41509F4442463941B
:1001BA00E8E0E61511F46624F09A0991199113C042
:1001CA00EA93FA93EFB7EA93772069F07A94E82DE5
:1001DA008394F0E0E85EFC4FE081E093C600E8E03B
:1001EA00E81509F48824E991EFBFF991E991189586
:1001FA00AA93E8E0E715E9F3F894772021F4E0916F
:10020A00C000E07269F4E52D5394F0E0E85EFC4F1B
:10021A00A881A083E8E0E51509F45524739403C086
:10022A00E881E093C60078940C94A002E497E0E891
:10023A00E0936100E0E0E0936100E4B9E5B9E0E24F
:10024A00E7B9E0E0E8B9EAB9EBB9E4BDE5BDE6BD76
:10025A00E7BDE8BDE0938000E0938100E09385006C
:10026A00E0938400E0938700E0938600E09389009E
:10027A00E0938800E0938B00E0938A00E093B60055
:10028A00E093B000E093B100E093B200E093B300D2
:10029A00E093B400E0936E00E0936F00E093700087
:1002AA00E0936900EDBBE0936800E093C000E8EDDD
:1002BA00E093C100E6E0E093C200E0E0E093C5000D
:1002CA00E7E6E093C400E0E8E0BFE0E0E0937B000B
:1002DA00E0937F00E0937A00ECBDE093BC00A0E1DC
:1002EA00FDD078941BDF25DF40E04B32D8F4249709
:1002FA00A0E0B0E027DFEA83FB83A1E0B0E022DFE1
:10030A00E883F983AA81BB81AE17BF0724F00E9454
:10031A008104E0E003C00E948104E1E0EC932496AA
:10032A004F5FE3CF42E04A3030F4E02F0E94880466
:10033A000E2F4F5FF8CF4AE0423130F4E22F0E948D
:10034A0088042E2F4F5FF8CF42E14A3130F4E12F73
:10035A000E9488041E2F4F5FF8CF4AE1423230F4E0
:10036A00E52F0E9488045E2F4F5FF8CF42E24A329F
:10037A0030F4E32F0E9488043E2F4F5FF8CFA02F5E
:10038A00BB27EE27A10FBE1FEE27A20FBE1FEE2727
:10039A00A50FBE1FE32FF0E0EA17FB07E1F46DD0CB
:1003AA00E1E0EA93A0E00E949304E0E8F0E00E9412
:1003BA0099040E94A304E1E0EA93A1E00E94930455
:1003CA00ECE8F0E00E94A9040E94A304A8EEB3E0BE
:1003DA000E94FC0403C0A0E0B3E070D0E9EAF0E0B8
:1003EA000E94A9040E9449042696EDEAF0E00E94C0
:1003FA0099040E944904269675CFFFCFAA93E881F3
:10040A00E07111F0299A01C02998E881E07211F08F
:10041A002A9A01C02A98E881E07411F02B9A01C047
:10042A002B98E881E07811F02C9A01C02C988BE186
:10043A008A95F1F7289A8BE18A95F1F728988BE14A
:10044A008A95F1F778C0AA93A881D8DFE881E29566
:10045A00E883A881D3DF88EC90E00197F1F76BC0BD
:10046A00AA93E881F0E0E05EFC4FE081A981AE0F3B
:10047A00EADFA980988022960895A2E00E94B30438
:10048A00ACE0E1DFA1E00E94B304E0E09E2EAE2ED4
:10049A000895AA93A881AA3011F0AC1448F0E0E0BC
:1004AA00EA939394A92DDCDFA881AA3009F443C00A
:1004BA00A3945E9AA881C7DF5E983DC0BA93AA93B7
:1004CA001A93A981BA81ED91A983BA831E2FE030CC
:1004DA0019F0A12FDEDFF5CF188138C0AA93219A2F
:1004EA00229A239A249A209A569A579A28985E987A
:1004FA005F98C880E881E058E0932203E881E054DD
:10050A00E0932303A4E1B0E00E94FC040E94B90432
:10051A000E94B9040E94B904A0E270DF80E991E068
:10052A000197F1F7A8E28FDFA4E08DDFA5E88BDF62
:10053A00A6E089DFA2DF21960895BA93AA93AA8139
:10054A000E94FD00A881B9810E94C10423960895E2
:10055A00BA93AA931A930A93AA81BB8112960E940C
:10056A001A05309729F1AA81BB8114960E941A05AF
:10057A008F01309761F00230E0E01E0780F0F80149
:10058A0031978F01AA81BB811496ED93FC93AA81BE
:10059A00BB8112960E94C1043197AC81A083AA81C3
:1005AA00BB810E941A05FF2312F00E94C10406C0F3
:1005BA00AA81BB81EFEFFFEFED93FC9319810881CC
:1005CA0025960895BA93AA9326970E94270510E0C4
:1005DA00AC85BD85E0E0F0E0ED93FC93EA89FB8908
:1005EA003196EA8BFB8B3197E4912E2FE03009F498
:1005FA0015C1E12FE03039F4253211F411E002C0BF
:10060A000E94C7040AC1E130A9F4253219F40E94F4
:10061A00C70402C112E040E000E02D3211F401E00B
:10062A00FCC02B3211F44BE2F8C0203211F440E244
:10063A00F4C002C0E23039F450E013E0203311F480
:10064A000068EBC003C0E33009F0E7C0203310F0C4
:10065A002A3308F007C0AAE05A9F502DE22FE05330
:10066A005E0FDBC0E22FE33649F40E94CE04E8892C
:10067A00F989A481AA930E94D404CEC0E33741F435
:10068A000E94CE040E94DA040E9468041E2F0AC047
:10069A00E03761F40E94CE040E94DA040E947404D6
:1006AA001E2F086002600F7730E034C0E43611F084
:1006BA00E93611F4046002C0E53731F4E8E6F0E007
:1006CA00EE83FF8315E00CC0E83511F4086003C01F
:1006DA00E83709F0A1C0E2E7F0E0EE83FF8314E017
:1006EA0002FF14C00E94CE040E94E404AB85AA2330
:1006FA003AF4EA85FB850E940A05EA87FB874DE200
:10070A00403011F01F5F01C00B7F04C00E94CE046D
:10071A000E94E40400FD11C0151778F407FF08C011
:10072A0002FF04C00B7F242F115001C020E301C037
:10073A0020E20E94C7045150EFCF312F01FF17C0AA
:10074A003030A1F003FF06C0EE81FF812591EE83D0
:10075A00FF8305C0AE81BF812D91AE83BF830E9406
:10076A00C704503009F051503150EACF4BC020E352
:10077A00EE81FF810E941E05E887F987EE81FF81DD
:10078A003296EE83FF83E885F985AA85BB85AE1785
:10079A00BF0750F02F5FA885B985EA85FB85EA1B5C
:1007AA00FB0BEA87FB87EFCF2A3328F003FF02C04F
:1007BA00295F01C0295D04FD1AC0213320F4A885F0
:1007CA00B985119709F409C0531710F000FF01C049
:1007DA0013C020E207FF0BC020E3006102FF07C03D
:1007EA000B7F4A930E94D404503009F051500E9462
:1007FA00C704503009F051503150A885B985129775
:10080A0008F0B5CF00FF08C0503031F05150E0E297
:10081A00EA930E94D404F8CF10E0E0CEAC85BD85FF
:10082A000E941A050E942E0564960895FF92F82EDA
:10083A0026970E9429050E94EC04309719F4EFEFDD
:10084A00FFEF1DC0DE0116960E9406058D010E946B
:10085A00EC04EE83FF83E0E0E887E987DE011A967D
:10086A000E94F304EDEAF2E0FA93EA93DE011A96A3
:10087A00A9DE9F01AE81BF81E0E0EC93F9010E94FD
:10088A0030052A96FF900895FF92F82E26971A931C
:10089A000A93DE0114960E9406058D01E0E0EC83BE
:1008AA00ED83EE83EF83DE0118960E94F304E2EAF9
:1008BA00F2E0FA93EA93DE01189684DE1981088140
:1008CA002896FF900895BA93AA93A991B991EE2711
:1008DA00FF276D91662311F03196FBCF0895BA93E5
:1008EA00AA93AA27BB27E991F9910590002011F054
:1008FA001196FBCFFD010895E42FF0E0DE011E966C
:10090A00AE0FBF1F0895EE0F0E2EE42FF0E0DE01AA
:10091A001A96AE0FBF1FEC91E02908950E94350286
:10092A00FE01FA93EA930895FA93EA93E02FFF27D8
:10093A00662777270E94220584E008950E941B04F7
:10094A002896DE010C946302FA93EA93E12FFF27BB
:10095A00662777270E94220584E008950E942802CC
:10096A00A3E0B0E00C94FC04A0E30E94030280E937
:10097A0091E00197F1F70895ED91FD913196FE937B
:10098A00EE9308952A93AD85BE85EF85F88909957A
:10099A000895E889F9893497E88BF98B0895AD852C
:1009AA00BE85EF85F88909950895A889B9891496AD
:1009BA000E941A05EE83FF83AE81BF810895A8893C
:1009CA00B98914960E941A05EA87FB870895DE0101
:1009DA001C960E9406050E941A0508950E940605A3
:1009EA000E941A05FA93EA931A930A9308951096A5
:1009FA0039F080EA9FE00197F1F7A8951197C9F7B6
:100A0A0008950024AF0DB01D0895F195E195F040C9
:100A1A000895EA17FB07E1E009F0EE270895AE17FB
:100A2A00BF07E1E00CF0EE270895ED91FC911197D4
:100A3A0008950590F491E02D08957A936A93FA93B4
:100A4A00EA9308955A934A933A932A931A930A93E4
:100A5A0008955D814C813B812A811981088108951D
:00000001FF
