:060000000C9434000C9486
:1000060000000C9400000C9400000C9400000C946A
:1000160000000C9400000C9400000C9400000C945A
:1000260000000C9400000C9400000C9400000C944A
:1000360000000C9400000C9400000C9400000C943A
:1000460000000C9400000C9400000C9400000C942A
:1000560000000C9400000C9400000C9400000C941A
:100066000000F894EE27EFBBF1E0F5BFE5BF8DE0A9
:10007600A2E0BB27ED938A95E9F780E098E0A0E03F
:10008600B1E0ED930197E9F7E0E0EEBBEFEFEDBFEE
:10009600E8E0EEBFC0E0D3E00C945100E0E8E09366
:1000A6006100E0E0E0936100E4B9E5B9E7B9E8B9D9
:1000B600EAB9EBB9E4BDE5BDE6BDE7BDE8BDE09351
:1000C6008000E0938100E0938500E0938400E09354
:1000D6008700E0938600E0938900E0938800E09330
:1000E6008B00E0938A00E093B600E093B000E093C3
:1000F600B100E093B200E093B300E093B400E09364
:100106006E00E0936F00E0937000E0936900EDBB32
:10011600E0936800E093C100E0E8E0BFE0E0E09330
:100126007B00E0937F00E0937A00ECBDE093BC0097
:10013600509A519A529A219A5898599A5A98299AA5
:10014600A8ECB0E00E94B100589A59985A9A29989A
:10015600A8ECB0E00E94B100EBCFFFCF109639F0CB
:1001660080EA9FE00197F1F7A8951197C9F70895DE
:00000001FF
