:040000000C945F00FD
:100004000C9400000C9400000C9400000C9400006C
:100014000C9400000C9400000C9400000C9400005C
:100024000C9400000C9400000C9400000C9400004C
:100034000C9400000C9400000C9400000C9400003C
:100044000C9400000C948E000C9400000C94AE00F0
:100054000C9400000C9400000C9400000C9400001C
:100064000C9400001027E80364000A00010000104B
:100074000001100001000000000000007B22546514
:100084006D7065726174757265223A25642C202244
:1000940048756D6964697479223A25647D0A0D0096
:1000A40001002D4E414E00494E460000060003005B
:1000B4007A0001001003A4000000F894EE27EFBBBF
:1000C400F1E0F5BFE5BF8DE0A2E0BB27ED938A9593
:1000D400E9F780E098E0A0E0B1E0ED930197E9F75B
:1000E400E0EBF0E085919591009761F0A591B591D1
:1000F40005901590BF01F00105900D920197E1F76D
:10010400FB01F0CFE0E0EEBBEFEFEDBFE8E0EEBFC8
:10011400C0E0D3E00C94E400EA93FA93EFB7EA93D7
:100124001A930A931091C0000091C600E12FEC715C
:1001340081F4E42D4394F0E0E050FD4F0083E8E0C7
:10014400E41509F444246394E8E0E61511F4662404
:10015400F09A0991199113C0EA93FA93EFB7EA93CD
:10016400772069F07A94E82D8394F0E0E85FFC4FFF
:10017400E081E093C600E8E0E81509F48824E991F9
:10018400EFBFF991E9911895AA93E8E0E715E9F32F
:10019400F894772021F4E091C000E07269F4E52D31
:1001A4005394F0E0E85FFC4FA881A083E8E0E515F4
:1001B40009F45524739403C0E881E093C60078944D
:1001C4002196089500E010E020E030E0E0E8E093BC
:1001D4006100E0E0E0936100E4B9E5B9E7B9E8B9AA
:1001E400EAB9EBB9E4BDE5BDE6BDE7BDE8BDE09322
:1001F4008000E0938100E0938500E0938400E09325
:100204008700E0938600E0938900E0938800E09300
:100214008B00E0938A00E093B600E093B000E09393
:10022400B100E093B200E093B300E093B400E09334
:100234006E00E0936F00E0937000E0936900EDBB03
:10024400E0936800E093C000E8EDE093C100E6E0CD
:10025400E093C200E0E0E093C500E7E6E093C40069
:10026400E0E8E0BFE0E0E0937B00E0937F00E09310
:100274007A00ECBDE093BC0078940E94FA028F01EE
:100284000E94FA029F01E0E8F0E0FA93EA93F80191
:100294000E9439030E948703F9010E9439030E94D6
:1002A400870388E00E94BC022A96A4EFB1E00E9472
:1002B4002703E3CFFFCFE0911003F0911103609186
:1002C400120370911303ADE6BEE486EC91E40E9440
:1002D4003E03EE59F8486F4F7F4FE0931003F093BD
:1002E40011036093120370931303FB01FF770895C6
:1002F400BA93AA93AA810E94C600A881B981ED91FC
:10030400FD913196FE93EE9323960895BA93AA93A2
:1003140026970E948C0310E0AC85BD85E0E0F0E0F8
:10032400ED93FC93EA89FB893196EA8BFB8B319739
:10033400E4912E2FE03009F415C1E12FE03039F4B7
:10034400253211F411E002C00E9402030AC1E13017
:10035400A9F4253219F40E94020302C112E040E01C
:1003640000E02D3211F401E0FCC02B3211F44BE219
:10037400F8C0203211F440E2F4C002C0E23039F493
:1003840050E013E0203311F40068EBC003C0E33005
:1003940009F0E7C0203310F02A3308F007C0AAE0C0
:1003A4005A9F502DE22FE0535E0FDBC0E22FE3365D
:1003B40049F40E940903E889F989A481AA930E9457
:1003C4000F03CEC0E33741F40E9409030E941503D2
:1003D4000E94E1021E2F0AC0E03761F40E94090363
:1003E4000E9415030E94ED021E2F086002600F7721
:1003F40030E034C0E43611F0E93611F4046002C090
:10040400E53731F4E8E6F0E0EE83FF8315E00CC055
:10041400E83511F4086003C0E83709F0A1C0E2E749
:10042400F0E0EE83FF8314E002FF14C00E9409038E
:100434000E941F03AB85AA233AF4EA85FB850E9438
:100444003503EA87FB874DE2403011F01F5F01C09E
:100454000B7F04C00E9409030E941F0300FD11C00A
:10046400151778F407FF08C002FF04C00B7F242F80
:10047400115001C020E301C020E20E940203515048
:10048400EFCF312F01FF17C03030A1F003FF06C0BA
:10049400EE81FF812591EE83FF8305C0AE81BF818C
:1004A4002D91AE83BF830E940203503009F0515056
:1004B4003150EACF4BC020E3EE81FF810E948303D9
:1004C400E887F987EE81FF813296EE83FF83E88522
:1004D400F985AA85BB85AE17BF0750F02F5FA885A5
:1004E400B985EA85FB85EA1BFB0BEA87FB87EFCF1F
:1004F4002A3328F003FF02C0295F01C0295D04FDEF
:100504001AC0213320F4A885B985119709F409C0CC
:10051400531710F000FF01C013C020E207FF0BC007
:1005240020E3006102FF07C00B7F4A930E940F0380
:10053400503009F051500E940203503009F05150DC
:100544003150A885B985129708F0B5CF00FF08C0CF
:10055400503031F05150E0E2EA930E940F03F8CF9B
:1005640010E0E0CEAC85BD850E947F030E9493031A
:1005740064960895FF92F82E26971A930A93DE0143
:1005840014960E9431038D01E0E0EC83ED83EE8349
:10059400EF83DE0118960E9431030E947F03FA93D1
:1005A400EA931A930A93EAE7F1E0FA93EA93DE01F5
:1005B4001896ACDE198108812896FF900895BA93A5
:1005C400AA93A991B991EE27FF276D91662311F0A3
:1005D4003196FBCF0895BA93AA93AA27BB27E99132
:1005E400F9910590002011F01196FBCFFD010895BB
:1005F4000E945D01DF01E4E1F0E00E9471030895CF
:100604002A93AD85BE85EF85F88909950895E88913
:10061400F9893497E88BF98B0895AD85BE85EF850C
:10062400F88909950895A889B98914960E947F03C9
:10063400EE83FF83AE81BF810895A889B98914969A
:100644000E947F03EA87FB870895109639F080EAB9
:100654009FE00197F1F7A8951197C9F70895002431
:10066400AF0DB01D0895F195E195F04008956F2FF9
:10067400660F660B762F08957A9F702D6B9F700D11
:10068400F89F700DE99F700D6A9F602D710DFB9F9F
:10069400600D711DE89F600D711D8827FA9FF02D74
:1006A400610D781FEB9FF00D611D781FEA9FE02D0F
:1006B400F10D681F781F08950024112490E1AA0FFA
:1006C400BB1F001C111C0E1A1F0A18F40E0E1F1E4D
:1006D40001C0A1609A9599F7FD01D0010895E894AD
:1006E400B7FF04C0A095B09511966894F7FDBBDFE1
:1006F400E3DFFD010EF4B7DF0895ED91FC9111974E
:1007040008950590F491E02D08957A936A93FA93ED
:10071400EA9308955A934A933A932A931A930A931D
:1007240008955D814C813B812A8119810881089556
:00000001FF
